:020000040800F2
:1000000000500020F9130008B5100008B7100008D0
:10001000B9100008BB100008BD1000080000000067
:10002000000000000000000000000000BF100008F9
:10003000C110000800000000C3100008C51000082F
:10004000411400084114000841140008411400083C
:10005000411400084114000841140008411400082C
:10006000411400084114000841140008411400081C
:10007000411400084114000841140008411400080C
:1000800041140008411400084114000841140008FC
:1000900041140008411400084114000841140008EC
:1000A00041140008411400084114000841140008DC
:1000B00041140008411400084114000841140008CC
:1000C00041140008411400084114000841140008BC
:1000D00041140008411400084114000841140008AC
:1000E000C910000841140008411400080000000075
:1000F0000000000000000000000000000000000000
:0C01000000000000000000005FF808F1A3
:1001100010B5054C237833B9044B13B10448AFF341
:1001200000800123237010BD980000200000000013
:100130008C30000808B5034B1BB103490348AFF3EB
:10014000008008BD000000009C0000208C300008EA
:1001500053B94AB9002908BF00281CBF4FF0FF312E
:100160004FF0FF3000F072B9ADF1080C6DE904CE2C
:1001700000F006F8DDF804E0DDE9022304B0704782
:100180002DE9F047089E0D4604468E46002B4CD1C3
:100190008A42944667D9B2FA82F353B102FA03FC59
:1001A000C3F1200201FA03FE20FA02F242EA0E0E27
:1001B0009C404FEA1C47BEFBF7F11FFA8CF507FB8A
:1001C00011EE01FB05F0220C42EA0E4290420AD9E0
:1001D0001CEB020201F1FF3E80F01981904240F2D7
:1001E000168102396244121AB2FBF7F007FB1022A3
:1001F00000FB05F5A4B244EA0244A5420AD91CEB6F
:10020000040400F1FF3280F00481A54240F2018134
:100210006444023840EA01400021641B1EB1DC4006
:100220000023C6E90043BDE8F0878B4208D9002EC1
:1002300000F0EA800021C6E900050846BDE8F08725
:10024000B3FA83F1002948D1AB4202D3824200F2D3
:10025000F880841A65EB030201209646002EE2D056
:10026000C6E9004EDFE702B9FFDEB2FA82F3002BE7
:1002700040F08E80881A0121170C1FFA82FEB0FB15
:10028000F7F507FB1500220C42EA00420EFB05F0D1
:10029000904208D91CEB020205F1FF3802D29042CD
:1002A00000F2CC804546121AB2FBF7F007FB102291
:1002B0000EFB00FEA4B244EA0244A64508D91CEB9A
:1002C000040400F1FF3202D2A64500F2B4801046C9
:1002D000A4EB0E0440EA0540A0E7C1F120078B40E3
:1002E00022FA07FC4CEA030C25FA07FA4FEA1C49EC
:1002F000BAFBF9F88D4020FA07F309FB18AA1FFA98
:100300008CFE2B4300FA01F508FB0EF01C0C44EAAE
:100310000A44A04202FA01F20BD91CEB040408F1D2
:10032000FF3A80F08680A04240F28380A8F1020864
:100330006444241A98B2B4FBF9F309FB134403FB99
:100340000EFE40EA0444A64508D91CEB040403F160
:10035000FF306AD2A64568D9023B644443EA0840AC
:10036000A0FB0293A4EB0E049C42C8469E4654D3C5
:1003700051D0002E67D0B5EB080364EB0E04CB40E0
:1003800004FA07F71F43CC40C6E9007400214AE78E
:1003900002FA03FCC3F12000C1409D4024FA00F0A2
:1003A0004FEA1C472843B1FBF7F507FB15111FFA6D
:1003B0008CFE020C42EA014205FB0EF1914204FA66
:1003C00003F408D91CEB020205F1FF382FD2914249
:1003D0002DD9023D6244521AB2FBF7F107FB1122FC
:1003E00080B240EA024001FB0EF2824208D91CEBC7
:1003F000000001F1FF3816D2824214D9023960445C
:10040000801A41EA05413AE7314630460BE771462A
:10041000E9E61046FEE64D45ABD2B9EB020863EBC8
:100420000C0E0138A5E74146EAE7034696E7454644
:10043000D1E7D0467DE76444023849E7023D624493
:1004400031E708460AE73146EDE600BF704700BFD6
:1004500010222DE9F04389B00DEB0200002102F0DB
:1004600083F9354B354D9A69354F42F020029A6138
:100470009A69284602F020020192019A9A694FF483
:10048000446142F004029A619A69022402F0040273
:100490000292029A9A694FF0010942F008029A61A9
:1004A0009B69002203F008030393039B01F068F9A2
:1004B000002238464FF4607101F062F94FF00308F2
:1004C0004FF44463284604A90026CDE90439CDE958
:1004D000064801F075F84FF47043384604A9CDE999
:1004E0000436069401F06CF84FF48073284604A992
:1004F000CDE90436069401F063F84FF40042114B45
:10050000284604A9CDE90423069401F059F84FF4D4
:100510006073384604A9CDE90439CDE9064801F0F5
:100520004FF832463146282000F0F8FF282001F02D
:1005300025F809B0BDE8F083001002400008014032
:10054000000C01400000211008B50B480B4A0C4B71
:10055000C0E9002300234FF48042C0E90233C0E920
:100560000423C0E90633036201F00CFA18B1BDE8B8
:10057000084000F085BD08BDB400002000580040D0
:10058000A086010010B5044686B01022002102A802
:1005900002F0EAF82268114B9A421DD1104C4FF438
:1005A0004062A3690F4843F00803A361A36902A94D
:1005B00003F008030093009B1223CDE902230323D9
:1005C000059300F0FDFFE36943F48003E361E36911
:1005D00003F480030193019B06B010BD0058004056
:1005E00000100240000C014010B590B01422002110
:1005F00008A802F0B9F81422002101A802F0B4F80A
:1006000002244FF480330122CDE90D43CDE90623C6
:100610004FF4E01306A80A920F9301F033FB08B1E0
:1006200072B6FEE70F23CDE901344FF480630390E7
:10063000CDE90430214601A801F0E6FC08B172B60C
:10064000FEE710B010BD000070B500224FF48071BD
:10065000284801F095F800224FF40071254801F078
:100660008FF82024244D234E2A688021304602F042
:10067000010201F085F801224FF48071304601F04B
:100680007FF800224FF48071304601F079F82B6832
:10069000013C4FEA53032B60E6D10824174B184D59
:1006A0001B78144E2B702A788021304602F001020C
:1006B00001F066F82B7801225B084FF48071304618
:1006C0002B7001F05DF800224FF48071304601F08C
:1006D00057F8013CE7D101224FF40071054801F0C1
:1006E0004FF82246BDE870404FF40071014801F018
:1006F00047B800BF000C014008010020380000206E
:100700003C0100200A21144B1A68144B1B6801FBA2
:1007100002336421124A126801FB02334FF47A71EA
:10072000104A126801FB023342F210710E4A12683D
:1007300001FB02330D4A0E49126801FB02330D4AD8
:100740000D49126801FB02330C4A0D49126801FB86
:1007500002330C4A1360704714010020100100207E
:100760001801002020010020240100202801002081
:10077000A08601003001002040420F00340100201B
:1007800080969800440100201B4B1C491B681C48A4
:10079000B3FBF1F201FB12331A490260B3FBF1F231
:1007A00001FB1233184819490260B3FBF1F201FB57
:1007B000123342F2107116480260B3FBF1F201FBF2
:1007C00012334FF47A7113480260B3FBF1F201FB6C
:1007D0001233642110480260B3FBF1F201FB1233C3
:1007E0000A210E480260B3FBF1F20D4801FB1233FF
:1007F00002600C4A13607047440100208096980004
:100800003401002040420F0030010020A08601008A
:1008100028010020240100202001002018010020D0
:10082000140100201001002030B56425134B41EA6B
:1008300000111B78124C41EAC30185B041F004015C
:100840000DF10F0201238DF80F1020464E21009567
:1008500001F040F9012000F03DFE9DF80F304E21DF
:1008600023F004038DF80F302046012300950DF18D
:100870000F0201F02FF905B030BD00BF310000209C
:10088000B400002010B5044600210009FFF7CCFF9A
:1008900004F00F000021013CFFF7C6FF012C04D833
:1008A000BDE81040022000F015BE10BD10B5044692
:1008B00001210009FFF7B8FF04F00F000121BDE896
:1008C0001040FFF7B1BF08B5322000F003FE002151
:1008D0000320FFF7A9FF052000F0FCFD0021032005
:1008E000FFF7A2FF012000F0F5FD00210320FFF734
:1008F0009BFF012000F0EEFD00210220FFF794FF96
:100900002820FFF7BFFF0C20FFF7BCFF0620FFF7F2
:10091000B9FF0120FFF7B6FFBDE80840022000F054
:10092000D9BD10B5441E14F8010F00B910BDFFF772
:10093000BDFFF8E700000000F8B540F2DB53544F6C
:100940003A689A423ADC4FF47A70524C524E534D08
:10095000316823682A684343514800FB013313443C
:10096000504A5B0013604FF4806101224E4800F052
:1009700007FF00224FF400614B4800F001FF33688D
:100980005B00336023685B0023602368B3F57A7FE4
:1009900006DB2368A3F57A73236033680133336081
:1009A0002B685B002B602B68B3F57A7F06DB2B6826
:1009B000A3F57A732B6023680133236040F2DB5385
:1009C0003A689A421ADD4FF47A70334B334A196809
:1009D000304B1B6812684343314800FB013313441A
:1009E000304A4FF4006130481360012200F0C8FE25
:1009F00000224FF480612C4800F0C2FE2B4B1C6893
:100A0000CCB98020FFF73EFF2948FFF78AFF254B2E
:100A100028491A68284801F087FE8020FFF732FF36
:100A20002648FFF77EFF2448FFF77BFF0F22214671
:100A3000214801F099FE00F047FD214C2368C01ABF
:100A4000B0F5FA6F1CD900F03FFD1E4B154A1B682C
:100A5000126820609B1A1C4A03EBD37311680020B4
:100A600001EB630121EAE171116007A3D3E90023DF
:100A7000FFF76EFB154B1860BDE8F840FFF7E4BDCB
:100A8000F8BD00BFAFF300800095BA0A0000000077
:100A90006C0100201C0100202C0100200C01002012
:100AA00040420F00400100200008014048010020A2
:100AB000A4300008B430000850010020B93000080C
:100AC000680100204401002060010020080100208E
:100AD00008B50120FFF7D6FEBDE80840022000F06F
:100AE000F9BC000007B5FFF7F3FFC420FFF7CAFE0B
:100AF000344B35491A6801A801F016FE01A8FFF72A
:100B000010FF324B30491A6801A801F00DFE01A810
:100B1000FFF707FF2E4B2C491A6801A801F004FECD
:100B200001A8FFF7FEFE2B4B27491A6801A801F028
:100B3000FBFD01A8FFF7F5FE274B23491A6801A822
:100B400001F0F2FD01A8FFF7ECFE244B1E491A68E4
:100B500001A801F0E9FD01A8FFF7E3FE204B1A49C7
:100B60001A6801A801F0E0FD01A8FFF7DAFE1D4BAD
:100B700015491A6801A801F0D7FD01A8FFF7D1FEB9
:100B8000194B1B68013B072B08D8DFE803F0040D65
:100B90000F11131517198B20FFF774FE1348FFF779
:100BA000C0FE03B05DF804FB8A20F5E78920F3E777
:100BB0008820F1E78720EFE78620EDE78520EBE747
:100BC0008420E9E734010020BD3000083001002016
:100BD000280100202401002020010020180100200D
:100BE000140100201001002034000020C030000853
:100BF00010B5FFF76DFF0B4C0B4B0C491A682046E4
:100C000001F092FDC020FFF73DFE0948FFF789FE85
:100C10002046FFF786FE2046BDE810400F22002147
:100C200001F0A2BD5001002044010020B4300008B2
:100C3000C2300008000000002DE9884800F026FCC2
:100C4000FFF7D2FCFFF704FCFFF77EFC00F096FAFA
:100C500000F0CCFA00F0FEFA00F080FB40F6C41081
:100C600000F038FCFFF72FFEFFF732FF8420FFF77C
:100C700009FEB348FFF755FEC520FFF703FEB14854
:100C8000FFF74FFE4FF47A6000F024FCAE4801F00D
:100C900077FAAE4801F074FAAD4801F071FA6423B6
:100CA0003122AC49AC4801F0F4FC00228021AB4871
:100CB00000F066FD00224FF40071A84800F060FDCE
:100CC00000224FF48071A54800F05AFD0022402117
:100CD000A34800F055FD01224021A14800F050FD3D
:100CE000012240219E4800F04BFD002240219C48FB
:100CF00000F046FD01224FF48071984800F040FD5D
:100D000001224FF48071954800F03AFD00224FF423
:100D10008071924800F034FD01224FF400718F4839
:100D200000F02EFD01224FF400718C4800F028FDE8
:100D300000224FF40071894800F022FD894F8A4B50
:100D4000DFF828923B60FFF71FFDFFF751FF7AA302
:100D5000D3E9002339680020C9F80010FFF7F8F93B
:100D6000DFF80CA2DFF8F881CAF80000FFF76CFC8E
:100D700000F0AAFB7F4B804D186000F0A5FB7F4B75
:100D80001860764C7E4EDFF8FCB1DBF80030012BAA
:100D900004D1FFF7D1FD0023CBF800302B6893B9C5
:100DA0004FF40041204600F0E5FC00286CD0012300
:100DB0002B6000F089FB3060FFF7E6FCFFF792FE46
:100DC000FA2000F087FB2B68012BDCD100F07CFBC4
:100DD0003368C01A42F21073984205D900232B6081
:100DE000FFF7D2FCFFF704FF2B68012BCBD14FF4A8
:100DF0000041204600F0BEFCA8B100F065FB624A4D
:100E0000306013680133082BC8BF08231360FFF755
:100E100069FEFA2000F05EFB4FF40041204600F02E
:100E2000A9FC0028F8D14FF48071404600F0A2FCE4
:100E3000A8B100F049FB544A30601368013B002B15
:100E4000D8BF01231360FFF74DFEFA2000F042FBEC
:100E50004FF48071404600F08DFC0028F8D14FF42B
:100E60008041204600F086FC00283FD000F02CFB9B
:100E7000454B30601B68013B072B2BD8DFE803F0A4
:100E8000234B4D4F515355574FF48071404600F05E
:100E900071FC00288BD14FF48041204600F06AFCA1
:100EA000002884D14FF40051204600F063FC002854
:100EB0007FF47DAF4FF48051204600F05BFC0028AA
:100EC0007FF475AF7FE7314A13680133092BC8BF40
:100ED00000231360FFF706FEFA2000F0FBFA4FF440
:100EE0008041204600F046FC0028F8D14FF4005124
:100EF000204600F03FFC00286AD000F0E5FA224BC3
:100F000030601B68013B072B56D8DFE803F04F8F9A
:100F100091939597999B1E4AD6E71E4AD4E71E4A9D
:100F2000D2E71E4AD0E71E4ACEE71E4ACCE71E4A49
:100F300013680133022BCAE70095BA0A00000000CB
:100F4000C6300008D030000874010020BC01002029
:100F500004020020000000204C020020000C014090
:100F600000080140440100208096980060010020A4
:100F700008010020380100204801002068010020FD
:100F80004C010020640100203400002010010020EA
:100F9000140100201801002020010020240100205D
:100FA0002801002030010020340100202A4A136863
:100FB000013B48BF09231360FFF794FDFA2000F0BE
:100FC00089FA4FF40051204600F0D4FB0028F8D1F4
:100FD0004FF48051204600F0CDFB00283FF4D3AE03
:100FE0000024FFF78FFB1D4B3A682C609A4288BFA4
:100FF0003B60FFF7C9FBFFF7FBFD15A3D3E9002317
:1010000039682046C9F80010FFF7A2F8CAF80000B6
:10101000FFF71AFBFA2000F05DFA114C4FF48051F3
:10102000204600F0A7FB0028F8D1AAE60D4ABEE74B
:101030000D4ABCE70D4ABAE70D4AB8E70D4AB6E7D4
:101040000D4AB4E70D4A1368013B48BF0223B2E7DB
:101050000095BA0A000000001001002040787D01D0
:10106000000C014014010020180100202001002084
:10107000240100202801002030010020340100203C
:1010800072B6FEE70A4B82B09A6942F001029A6199
:101090009A6902F001020092009ADA6942F08052E5
:1010A000DA61DB6903F080530193019B02B0704762
:1010B00000100240FEE7FEE7FEE7FEE7FEE77047AE
:1010C0007047704700F0F4B910B54FF4004000F0DD
:1010D0005DFB00F0F9F90F4C2368C01A0E4B186045
:1010E00000F0F2F90D4B206018680D4B426A1A604F
:1010F0000C4B19680C4B4A6A1A600C4B1A680C4B63
:10110000546A1C60002343624B6253620122094B04
:101110001A6010BD380100206C010020740100200D
:101120000C010020BC0100201C0100200402002052
:101130002C010020640100200B4A0346116810B501
:1011400009B90A491160106809490A4C0344091B8E
:101150008B4206D901F010FB0C2303604FF0FF30E7
:1011600010BD1360FCE700BF70010020E003002009
:1011700000500020000400007047000010B500245B
:1011800086B01022002102A801F0EEFA1548164B95
:10119000CDE90044C0E9003440F2E733C0E905443A
:1011A000C0E90334846001F04DF808B1FFF768FF2F
:1011B0004FF400530B4802A9CDE90234CDE90444B1
:1011C00001F076F808B1FFF75BFF20228023694623
:1011D0000448CDE9002301F08BF908B1FFF750FF77
:1011E00006B010BD74010020002C014010B588B07D
:1011F0001422002103A801F0B7FA00244FF0804325
:101200001348CDE90144C0E9003440F2E73384607B
:10121000C0E90334846101F015F808B1FFF730FF2D
:1012200007230B4803A9CDE9033401F03AF908B1CB
:10123000FFF726FF20228023054801A9CDE90123DD
:1012400001F056F908B1FFF71BFF08B010BD00BF51
:10125000BC01002000B589B01422002103A801F0D0
:1012600083FA00231448154ACDE90133C0E900236D
:1012700040F2E7328360C0E90323836100F0E2FFBC
:1012800008B1FFF7FDFE072110230B48CDE903133A
:1012900003A901F006F908B1FFF7F2FE202280232E
:1012A000054801A9CDE9012301F022F908B1FFF7B2
:1012B000E7FE09B05DF804FB0402002000040040D2
:1012C000102210B5044688B00DEB0200002101F099
:1012D0004BFA23681D4A93421BD11D4B1D489A6946
:1012E00004A942F400629A619A6902F400620092D1
:1012F000009A9A6942F004029A619B6903F0040320
:101300000193019B4FF48053049300F059F908B006
:1013100010BDB3F1804F0BD103F50433DA6942F00D
:101320000102DA61DB6903F001030293029BEEE73D
:10133000094A9342EBD1064BDA6942F00202DA61C4
:10134000DB6903F002030393039BE0E7002C0140F9
:1013500000100240000801400004004008B54FF4AE
:1013600016530A480A4AC0E9002300230822C0E9AC
:101370000233C0E905230361C36101F057F918B1D5
:10138000BDE80840FFF77CBE08BD00BF4C0200204E
:101390000038014010B5044686B01022002102A892
:1013A00001F0E2F92268124B9A421ED103F558432C
:1013B0009A69104842F480429A619A6902A902F43B
:1013C00080420092009A9A6942F004029A619B69F5
:1013D0004FF4007203F004030193019B1223CDE943
:1013E00002230323059300F0EBF806B010BD00BF05
:1013F0000038014000080140FFF7BEFE0B480C49D1
:101400000C4A002302E0D458C4500433C4188C4260
:10141000F9D3094A094C002301E013600432A242C7
:10142000FBD301F0AFF9FFF707FC70470000002085
:10143000980000204831000898000020E0030020B8
:10144000FEE7000038B50E4B05461A784FF47A7364
:10145000B3FBF2F30B4A1068B0FBF3F000F09CF81A
:10146000044658B90F2D09D8024629464FF0FF30DF
:1014700000F054F82046044B1D6038BD0120FCE705
:10148000400000203C00002044000020074A08B52E
:101490001368032043F01003136000F02DF80F20B1
:1014A000FFF7D0FFFFF7EEFD002008BD002002404F
:1014B000034A044B11681B780B441360704700BF4C
:1014C0009402002040000020014B1868704700BFC4
:1014D0009402002038B50446FFF7F6FF0546631C6A
:1014E0001EBF044B1B78E418FFF7EEFF431BA3421B
:1014F000FAD338BD4000002007490302CA6803F44C
:10150000E06322F4E0621204120C134343F0BF6361
:1015100043F40033CB60704700ED00E0154B30B56D
:10152000DC68C4F30224C4F10703251D042B28BF83
:101530000423062D4FF0FF3594BF0024033C05FA29
:1015400003F321EA0303A54022EA0502A340002891
:1015500043EA0203ACBF00F16040074A4FEA0313BD
:10156000DBB2ABBF00F5614000F00F0080F8003344
:10157000135430BD00ED00E014ED00E0002807DB5F
:1015800001234109034A00F01F00834042F8213043
:10159000704700BF00E100E00138B0F1807F0BD25E
:1015A0004FF0E023F021054A586182F82310002013
:1015B000072298611A6170470120704700ED00E032
:1015C0002DE9F74F00221646644F654BDFF894C1B2
:1015D000DFF894E10D6835FA06F402D103B0BDE8F6
:1015E000F08F4FF0010808FA06F805EA080438EA17
:1015F00005057AD14D68032D07D8013D022D00F273
:101600008780DFE805F0959AA000122D00F0988001
:101610006DD8112D00F08E80FF2C98BF82464FF0C0
:101620000F0988BF00F1040A4FEA8605DAF8008046
:1016300088BF203D09FA05FB28EA0B0802FA05F5E8
:1016400048EA0505CAF80050D1F804A01AF0805FF6
:101650004BD0BD6926F0030845F00105BD61BD69A9
:1016600008F1804805F00105019508F5803806F07D
:10167000030B019D4FEA8B0BD8F8085009FA0BF9C0
:1016800025EA0909394DA84261D005F58065A842CF
:101690005FD005F58065A8425DD005F58065A8425C
:1016A0000CBF0325042505FA0BF545EA0905C8F822
:1016B00008509D681AF4801F14BF2543A5439D6000
:1016C000DD681AF4001F14BF2543A543DD605D6883
:1016D0001AF4003F14BF2543A5435D601D681AF44A
:1016E000803F14BF2543A5431D60013672E7DFF834
:1016F00080904D450CD017D8A9F580194D4507D0DD
:1017000009F570294D4503D0A9F580194D4583D1C0
:101710008A68D2B1012A08BFC0F810804FF00802D1
:1017200018BFC0F8148077E76545F1D07545EEE73E
:10173000CA6871E7CA6804326EE7CA6808326BE7A4
:10174000CA680C3268E7002266E7042264E70025D5
:10175000A9E70125A7E70225A5E700BF0010024081
:101760000004014000003110000032100008014068
:10177000000022108368194214BF01200020704726
:101780000AB1016170470904FBE77047044A08B5D4
:101790005169014202D05061FFF7F7FF08BD00BF59
:1017A00000040140016800224B6913F4806310D0EB
:1017B0006FF480634B612023026380F83D3080F832
:1017C0003E20036C80F83C2043F0040303640120B6
:1017D0007047184670472DE9F84606460F46914671
:1017E0001D464FEA114A3368BAF1010F0CBF5C691C
:1017F0009C6927EA0404A4B2B4FA84F46409A145FC
:1018000001D0002025E06A1CEED0FFF75DFE089BAA
:10181000C01AA84201D8002DE5D13368BAF1010FF2
:101820000CBF5B699B6927EA03039BB2B3FA83F39E
:101830005B099945D7D1002320220120336386F824
:101840003D2086F83E30326C86F83C3042F0200273
:101850003264BDE8F8862DE9F04104460F4616468D
:1018600098462568686927EA000080B2B8B16B69BC
:101870005A0516D52B68202243F400732B606FF4B1
:1018800080636B610023236384F83D2084F83E303D
:10189000226C42F004020120226484F83C30BDE84E
:1018A000F081731CDED0FFF70FFEA0EB0800B04202
:1018B00001D8002ED5D123685A6927EA020292B2D4
:1018C000002ACED000232022236384F83D2084F810
:1018D0003E30226C42F02002DDE770B504460D4632
:1018E000164623685B691B0601D5002070BD2046A3
:1018F000FFF758FFC8B96A1CF3D0FFF7E5FD801B5E
:10190000A84201D8002DECD123685B6913F0800355
:10191000E7D12022236384F83D2084F83E30226CF6
:1019200084F83C3042F0200222640120DEE770B5EA
:1019300004460D46164623685B695B0701D5002007
:1019400070BD2046FFF72EFFC8B96A1CF3D0FFF721
:10195000BBFD801BA84201D8002DECD123685B6938
:1019600013F00403E7D12022236384F83D2084F898
:101970003E30226C84F83C3042F020022264012088
:10198000DEE7000070B5044608B9012070BD90F88C
:101990003D3003F0FF021BB980F83C20FEF7F2FD5A
:1019A000242384F83D3023681A6822F001021A606B
:1019B0001A6842F400421A601A6822F400421A605F
:1019C00000F0BEFB3F4B65689D4294BF3E4B3F4BD2
:1019D00098428CBF00230123002BD6D1394E3C4BBB
:1019E000B542B0FBF3F388BF4FF496762268516896
:1019F00021F03F0141EA030182BF73434FF47A763D
:101A0000B3FBF6F35160116A013321F03F010B4340
:101A10001362D169431E2B4821F44F41854221F0C6
:101A2000FF0132D86D00B3FBF5F340F6FC700133D3
:101A3000034242D0C3F30B031943D1611168D4E9C7
:101A4000073021F0C00103430B4313609168D4E9D0
:101A5000030321F40341034321F0FF010B4393608F
:101A6000D168D4E9053021F0FF0103430B43D36073
:101A70001368002043F0010313602023206484F8DE
:101A80003D30206384F83E0080E7A06850B905EB44
:101A90004505B3FBF5F30133C3F30B037BB143F40B
:101AA0000043C9E719206843B3FBF0F30133C3F3E4
:101AB0000B0323B143F44043BEE70423BCE70123F7
:101AC000BAE700BFA08601007F841E00FF083D002A
:101AD00040420F002DE9F043044685B098460D467C
:101AE00091460C9FFFF7F0FC94F83D300646202B02
:101AF00004D00225284605B0BDE8F08300901923E4
:101B0000012220465B49FFF766FE0028F1D194F8D8
:101B10003C30012BEDD00123216884F83C300B6868
:101B2000DA075EBF0B6843F001030B600B6823F418
:101B300000630B60212384F83D30102384F83E308D
:101B400000232364A4F82A80638DC4F8249023859D
:101B5000494BE362E36A082B04D0012B02D013F552
:101B6000803F04D10B6843F480730B6002E0236B69
:101B7000122BF7D000223B464FF001112046009671
:101B8000FFF729FE226838B11368DB0544BF4FF424
:101B9000007323640125ADE72369B3F5804F21D19C
:101BA00005F0FE05156133463A4620463349FFF7F6
:101BB00052FE05460028EDD1236803905A6903922E
:101BC0009B690393039B238DF3B921680A6842F450
:101BD00000720A60202284F83C3084F83D2084F8AA
:101BE0003E3087E7EB1103F0060343F0F003136187
:101BF000204633463A462249FFF72DFE0028C9D138
:101C00002368EDB21D61CEE7324639462046FFF724
:101C100064FE40B1236C042BBCD12268136843F4EA
:101C200000731360B6E7636A20681A4612F8011B56
:101C300001616262628D013A92B26285228DD0F8B2
:101C400014C0511E89B21CF0040F21850AD049B17D
:101C50005978023301616362638D023A013B9BB2A2
:101C600063852285324639462046FFF760FE00280C
:101C7000A9D0CFE7020010000000FFFF0200010022
:101C8000080001002DE9F341054638B30368DB077E
:101C900010D42B689F075ED42B68190700F195803C
:101CA0002B685A0700F1C180E869002840F02C81B8
:101CB000002029E0904C636803F00C03042B07D04C
:101CC000636803F00C03082B0AD16368DE0307D5B1
:101CD00023689C03DDD56B68002BDAD1012013E06B
:101CE0006B68B3F5803F12D1236843F480332360DF
:101CF000FFF7EAFB064623689803CAD4FFF7E4FB24
:101D0000801B6428F7D9032002B0BDE8F0819BB99D
:101D1000236823F480332360236823F48023236023
:101D2000FFF7D2FB064623689903B2D5FFF7CCFB39
:101D3000801B6428F7D9E6E7B3F5A02F236803D109
:101D400043F480232360CFE723F4803323602368A8
:101D500023F48023CBE7684C636813F00C0F07D0A3
:101D6000636803F00C03082B10D16368DA030DD409
:101D700023689B0702D52B69012BAFD123686A69C1
:101D800023F0F80343EAC203236085E72A695B4B2B
:101D90006AB101221A60FFF797FB064623689F0786
:101DA000ECD4FFF791FB801B0228F7D9ABE71A6050
:101DB000FFF78AFB0646236898077FF56DAFFFF7AC
:101DC00083FB801B0228F6D99DE7AA694A4E4B4B3C
:101DD000E2B10122C3F88024FFF776FB0446736A60
:101DE0009B070DD54FF4FA52454B1B68B3FBF2F33A
:101DF000019300BF019B5A1E0192002BF9D14FE7BE
:101E0000FFF762FB001B0228E9D97CE7C3F88024B6
:101E1000FFF75AFB0446736A9F077FF541AFFFF750
:101E200053FB001B0228F6D96DE7334CE369D80059
:101E300024D40127E36943F08053E361E36903F0AD
:101E400080530093009B2F4E3368D90518D5EB685B
:101E5000012B26D1236A43F001032362FFF734FBF1
:101E600041F288380646236A9B073FD5002F3FF48E
:101E70001BAFE36923F08053E36115E70027E2E736
:101E8000336843F480733360FFF71EFB804633688A
:101E9000DA05DCD4FFF718FBA0EB08006428F6D9BC
:101EA00031E7ABB9236A41F2883823F0010323629A
:101EB000236A23F004032362FFF706FB0646236A26
:101EC0009807D3D5FFF700FB801B4045F7D91AE7E9
:101ED000052B236A03D143F004032362BAE723F0FE
:101EE00001032362236A23F00403B6E7FFF7ECFA49
:101EF000801B4045B7D906E700100240000042426F
:101F00003C000020007000402A4C636803F00C0382
:101F1000082B3ED00022284B02281A662CD1FFF74E
:101F2000D3FA06462368990120D42B6AB3F5803F83
:101F300005D16268A96822F400320A436260696AC6
:101F400062680B4322F474121343012263601A4B3C
:101F50001A66FFF7B9FA054623689A013FF5A8AE5D
:101F6000FFF7B2FA401B0228F6D9CCE6FFF7ACFA2D
:101F7000801B0228D6D9C6E6FFF7A6FA05462368D5
:101F80009B017FF595AEFFF79FFA401B0228F6D91B
:101F9000B9E601283FF4B8AE63682A6A03F48031D9
:101FA00091427FF49BAE6A6A03F4701393423FF44C
:101FB0007FAE93E600100240000042420D4A536893
:101FC00003F00C01082912D10B48C3F38341DB0352
:101FD000405C09D55368094AC3F340435043084A5B
:101FE000D35CB0FBF3F07047064B5843704703488F
:101FF000704700BF00100240F030000800127A0065
:102000000031000800093D002DE9F0410D4604466D
:1020100010B90120BDE8F081444A136803F00703BA
:102020008B4228D321688E0730D4CA0743D43F4A55
:10203000136803F00703AB4265D822683C4D12F0E9
:10204000040F6CD1130706D56B68226923F4605323
:1020500043EAC2036B60FFF7B1FF6B68354AC3F315
:102060000313D35CD840344B1860344B1868FFF727
:10207000E9F90020CEE7136823F007030B43136050
:10208000136803F007038B42C3D1CBE7284B11F051
:10209000040F1EBF5A6842F4E0625A60080742BF4C
:1020A0005A6842F460525A605A68A06822F0F002FE
:1020B00002435A60B9E762681D4E012A33681AD19B
:1020C00013F4003FA5D0736841F2883823F003036E
:1020D00013437360FFF7F8F907467368626803F00B
:1020E0000C03B3EB820FA2D0FFF7EEF9C01B404503
:1020F000F3D903208EE7022A02D113F0007FE1E733
:1021000013F0020FDEE7136823F007032B4313607D
:10211000136803F00703AB427FF47BAF8DE76B6876
:10212000E16823F4E0630B436B608BE7002002401F
:1021300000100240D83000083C000020440000207D
:10214000044B054A5B68C3F30223D35C034A10685F
:10215000D840704700100240E83000083C000020E2
:10216000044B054A5B68C3F3C223D35C034A10687F
:10217000D840704700100240E83000083C000020C2
:1021800090F83D30012B20D1022380F83D300368C8
:10219000DA6842F00102DA600D4A93420AD0B3F1E4
:1021A000804F07D0A2F59432934203D002F58062AB
:1021B000934204D19A6802F00702062A03D01A68F3
:1021C00042F001021A60002070470120704700BFF2
:1021D000002C01401A4A036890420AD0B0F1804FA7
:1021E00007D0A2F59432904203D002F5806290426B
:1021F00015D14A6823F070031343114A90420AD064
:10220000B0F1804F07D0A2F59432904203D002F58E
:102210008062904203D1CA6823F4407313434A6931
:1022200023F08003134303608B68C3620B688362EF
:10223000034B984204BF0B6903630123436170475A
:10224000002C014010B5044630B390F83D3003F047
:10225000FF021BB980F83C20FFF732F80223206808
:1022600084F83D30211DFFF7B5FF0123002084F8DD
:10227000463084F83E3084F83F3084F8403084F8AB
:10228000413084F8423084F8433084F8443084F894
:10229000453084F83D3010BD0120FCE710B584685E
:1022A0000A4324F47F4442EA03222243826010BDA1
:1022B00038B590F83C300446012B4FF0020000F096
:1022C0008E80012284F83D00206884F83C208368D9
:1022D00023F47F4323F0770383600B68602B4FD098
:1022E00032D8402B64D016D8202B0DD00AD833F02A
:1022F000100109D0012384F83D30002384F83C30DC
:10230000104638BD302BF5D1826822F0700213439D
:1023100043F0070328E0502BECD14A68CD68016AEE
:10232000036A21F00A0123F00103036283690A436F
:1023300023F0F00343EA051383610262836823F00C
:10234000700343F057030FE0B3F5805F0DD0B3F592
:10235000005F0CD0702BCDD1CB68D1E90121FFF704
:102360009DFF836843F0770383600022C2E7CB6858
:10237000D1E90121FFF792FF836843F48043F3E73B
:10238000036A026A4D6822F01002C968026282691B
:1023900023F0A00322F4704243EA051342EA01321B
:1023A00082610362836823F0700343F06703DBE715
:1023B0004A68CD68016A036A21F00A0123F001032B
:1023C000036283690A4323F0F00343EA0513836140
:1023D0000262836823F0700343F04703C4E70246B8
:1023E0008EE700684B68826810B522F070020C68B6
:1023F0001A4322F007022243502B82602CD010D8BF
:10240000402B19D04BD8202B14D005D833F0100313
:1024100014BF0120002010BDB3F1300018BF01200F
:10242000F9E7602B28D0702B39D10B69D1E9022153
:10243000FFF734FF0020EEE7052C30D0026A036A74
:10244000096923F001030362836923F0F00343EA7F
:10245000011383610262EDE78A680C69016A036A0D
:1024600021F00A0123F00103036283690A4323F088
:10247000F00343EA0413ECE7036A026A8C6822F073
:10248000100209690262826923F0A00322F47042FB
:1024900042EA013243EA041382610362CAE701207F
:1024A000B9E738B590F83C300446012B4FF00203F1
:1024B0001CD0012580F83D3080F83C50FFF791FF9B
:1024C00030B10023284684F83D5084F83C3038BDB4
:1024D0002368DA6822F04002DA60DA6822F4804287
:1024E000DA6084F83D5084F83C00F0E71846EEE7E7
:1024F00030B590F83C300246012B4FF0020022D05C
:10250000136882F83D005C680D6824F070042C4369
:1025100098685C600C4CA3420AD0B3F1804F07D09E
:10252000A4F59434A34203D004F58064A34204D1FB
:10253000496820F08000014399600123002082F85F
:102540003D3082F83C0030BD002C014010B50446FF
:102550000368C1681A6922F440520A431A6182680A
:102560000069D9680243606921F4B05121F00C017F
:1025700002430A43DA605A69A16922F440720A43AD
:102580005A610E4A934215D1FFF7EAFD19234343DE
:10259000626820689200B3FBF2F36422B3FBF2F1AD
:1025A00002FB11331B013233B3FBF2F303EB0113D4
:1025B000836010BDFFF7C4FDE8E700BF00380140AD
:1025C000F8B504460E4617461D462268136836EADB
:1025D000030301D1002028E06B1CF7D025B1FEF7E2
:1025E00073FFC01B8542F0D2226802F10C0353E84E
:1025F000003F23F4D0730C3242E8003021680028F9
:10260000F2D101F1140353E8003F23F0010301F17B
:10261000140040E80032002AF3D12023032084F87C
:10262000413084F8402084F84230F8BD10B50446AB
:1026300068B390F8413003F0FF021BB980F84020E6
:10264000FEF7A8FE2423226884F84130D368204690
:1026500023F40053D360FFF779FF236800201A6941
:1026600022F490421A615A6922F022025A615A6990
:1026700042F008025A61DA6842F40052DA6020231C
:10268000606484F8413084F84230606310BD0120FA
:10269000FCE72DE9F843994690F841300446202B99
:1026A0000E4617463CD100293CD0002A3AD02123BF
:1026B0000025456480F84130FEF706FFA368804698
:1026C000B3F5805FA784E78403D123690BB935464E
:1026D0001E46E38C9BB253B94B46424640212046EE
:1026E000FFF76EFF50B9202384F8413007E04B46D6
:1026F000424680212046FFF763FF10B10320BDE86A
:10270000F88322684EB935F8023BC3F308035360DF
:10271000E18C013989B2E184DBE716F8013BF6E789
:102720000220ECE70120EAE70EB46FF0004100B5AB
:102730009CB01DAB0290069007910491084809498E
:1027400053F8042B0591006802A9019300F08EF95B
:102750000022029B1A701CB05DF804EB03B07047B6
:10276000940000200802FFFF03460244934200D178
:10277000704703F8011BF9E7014B1868704700BF69
:102780009400002070B500260C4D0D4C641BA41065
:10279000A64209D100F07AFC00260A4D0A4C641BBF
:1027A000A410A64205D170BD55F8043B98470136E8
:1027B000EEE755F8043B98470136F2E74031000850
:1027C000403100084031000844310008704770472C
:1027D00038B50546002940D051F8043C0C1F002BA9
:1027E000B8BFE41800F0DCF81C4A136833B9636022
:1027F00014602846BDE8384000F0D8B8A34208D994
:10280000206821188B4201BF19685B680918216094
:10281000EDE71A465B680BB1A342FAD9116850186C
:10282000A0420BD120680144501883421160E0D1CE
:1028300018685B68084410605360DAE702D90C231B
:102840002B60D6E7206821188B4201BF19685B68AE
:102850000918216063605460CBE738BDD8030020BD
:1028600070B50E4E0C463168054611B900F0AAFB52
:1028700030602146284600F0A5FB431C0AD0C41C4A
:1028800024F00304A04207D0211A284600F09AFB46
:10289000013001D14FF0FF34204670BDDC03002031
:1028A0002DE9F843CD1C25F0030508350C2D38BF64
:1028B0000C25002D074601DBA94205D90C23002673
:1028C0003B603046BDE8F883DFF8D08000F068F860
:1028D000D8F800301C465CBB29463846FFF7C0FFDD
:1028E000431C044655D1D8F800402646002E45D159
:1028F000002C48D023683146384604EB030900F029
:1029000061FB81453FD1216838466D1A2946FFF7A2
:10291000A7FF013037D023682B442360D8F800305C
:10292000002B38D05A68A2422BD100225A600FE007
:102930002268521B1FD40B2A17D96119A3422560A4
:1029400018BF5960636808BFC8F8001062514B6037
:10295000384604F10B0600F029F826F00706231D7F
:10296000F21AAED09B1BA350ABE7A3426268DDD145
:10297000C8F80020ECE723466468ACE73446766884
:10298000B4E71346CCE70C2338463B6000F00EF862
:1029900097E72560DCE75B60FFDE00BFD80300201F
:1029A0000148FFF713BF00BFD40300200148FFF721
:1029B0000EBF00BFD40300202DE9F0471F468E68EC
:1029C0008246BE420C4690460B682CD88A8912F487
:1029D000906F26D06569096905EB4505A3EB0109F0
:1029E00005EBD5757B1C4B446D109D4238BF1D46D1
:1029F000530527D52946FFF753FF064660B34A46DD
:102A0000216900F0FDFAA38923F4906343F0800369
:102A1000A38126614E4426603E466561A5EB09050B
:102A2000A560BE4200D93E4632464146206800F0CD
:102A3000AFFA0020A3689B1BA36023683344236084
:102A4000BDE8F0872A4600F0E9FA06460028E0D102
:102A500050462169FFF7BCFE0C23CAF80030A38959
:102A60004FF0FF3043F04003A381E9E72DE9F04F39
:102A700098468B8907461B060D4614469DB00ED519
:102A80000B6963B94021FFF70BFF2860286120B96B
:102A90000C233B604FF0FF30D0E040236B610023FC
:102AA000099320238DF8293030234FF00109CDF808
:102AB0000C80DFF8A0818DF82A3023469A4613F85F
:102AC000012B0AB1252AF9D1BAEB040B0BD05B46D6
:102AD000224629463846FFF76FFF013000F0A980F3
:102AE000099A5A4409929AF80030002B00F0A1800C
:102AF00000234FF0FF32CDE905230AF1010A0493C8
:102B000007938DF853301A935446052214F8011B8D
:102B1000504800F067FA049AD8B9D00644BF202381
:102B20008DF85330110744BF2B238DF853309AF89A
:102B300000302A2B15D0544600204FF00A0C079A7B
:102B4000214611F8013B303B092B4DD9B0B107921A
:102B500014E0A0EB080309FA03F31343A24604931D
:102B6000D2E7039B191D1B680391002BBBBF5B427F
:102B700042F0020207930793B8BF049223782E2BEA
:102B80000CD163782A2B34D1039B02341A1D1B68A5
:102B90000392002BB8BF4FF0FF330593DFF8B8A0C6
:102BA00003225046217800F01DFA38B14022049BE0
:102BB000A0EB0A00824013430134049314F8011B74
:102BC000062226488DF8281000F00CFA002838D08C
:102BD000234B1BBB039B073323F0070308330393EB
:102BE000099B3344099368E70C4601200CFB023231
:102BF000A6E700234FF00A0C19460134059320463E
:102C000010F8012B303A092A03D9002BC6D00591C0
:102C1000C4E7044601230CFB0121F0E703AB00935A
:102C20002A4638460F4B04A9AFF30080421C0646E3
:102C3000D6D1AB895B063FF52DAF09981DB0BDE835
:102C4000F08F03AB00932A463846064B04A900F0E8
:102C50007DF8EBE702310008083100080C3100086C
:102C600000000000B92900082DE9F04716469946F2
:102C70008A680B6907469342B8BF1346336091F8E0
:102C800043200C46DDF820800AB10133336023680D
:102C9000990642BF336802333360256815F0060594
:102CA00006D104F1190AE36832689B1AAB422BDCA7
:102CB00094F84320131E226818BF0123920630D4D3
:102CC0004946384604F14302C047013023D0236807
:102CD000226903F00603042B14BF002533684FF06C
:102CE000000608BFE56804F11A0408BFED1A54F89D
:102CF000123C08BF25EAE5759342C4BF9B1AED1844
:102D0000B5421AD1002008E0012352464946384610
:102D1000C047013003D14FF0FF30BDE8F0870135E7
:102D2000C1E73020E11881F843005A1C94F845109F
:102D30002244023382F84310C2E701232246494667
:102D40003846C0470130E6D00136D9E72DE9FF47C4
:102D50000F7E9146782F80460C469A460C9D01F1D5
:102D6000430207D8622F0AD8002F00F0D580582FD1
:102D700000F0C18004F1420584F842703AE0A7F106
:102D80006303152BF6D801A151F823F0E52D0008B7
:102D9000F92D0008752D0008752D0008752D000807
:102DA000752D0008F92D0008752D0008752D0008F7
:102DB000752D0008752D0008FF2E0008252E00082F
:102DC000B92E0008752D0008752D0008212F000868
:102DD000752D0008252E0008752D0008752D00089A
:102DE000C12E00082B681A1D1B682A6004F14205D9
:102DF00084F842300123A0E020682B68070603F125
:102E00000401296001D51E6803E04606FBD5B3F92D
:102E10000060002E03DA2D23764284F843300A2323
:102E2000594812E02B682068191D2960050601D554
:102E30001E6802E04106FBD51E886F2F0CBF0823D9
:102E40000A235148002184F843106568002DA8BF6B
:102E50002168A560A4BF21F0040121600EB9002DF6
:102E60004BD01546B6FBF3F103FB1167C75D05F8C0
:102E7000017D3746BB420E46F4D9082B0BD123689F
:102E8000DE0708D5236961689942DEBF302305F863
:102E9000013C05F1FF35521B22614B46214640465D
:102EA000CDF800A003AAFFF7DFFE01304AD14FF0B2
:102EB000FF3004B0BDE8F087236843F020032360AF
:102EC0007827324884F84570236829681F0651F82E
:102ED000046B02D45F0648BFB6B2DF0748BF43F0B9
:102EE0002003296048BF23601EB9236823F0200314
:102EF00023601023A6E72448E4E71546BDE72B68C6
:102F00002668181D6169286035061B6801D519609F
:102F100002E07006FBD51980002315462361BCE74B
:102F20002B6800211A1D2A601D686268284600F07F
:102F300059F808B1401B606063682361002384F87E
:102F40004330AAE72A46494640462369D047013024
:102F5000ADD023689B0713D4E068039B9842B8BFA9
:102F60001846A6E70123324649464046D04701307D
:102F70009DD00135E36803995B1AAB42F2DCEBE7C5
:102F8000002504F11906F5E7133100082431000883
:102F9000884210B501EB020402D98442234607D8C7
:102FA000431EA14208D011F8012B03F8012FF8E7C6
:102FB000014602448A4200D110BD13F8014D02F8C7
:102FC000014DF7E738B50023054D044608462B6050
:102FD000FEF7B2F8431C02D12B6803B1236038BD61
:102FE000D0030020034610B5C9B2024493421846EC
:102FF00001D1002003E0047801338C42F6D110BDEA
:103000000A44914200F1FF3300D1704710B511F826
:10301000014B914203F8014FF9D110BD2DE9F04168
:10302000804614460E4621B91146BDE8F041FFF72F
:1030300037BC2AB9FFF7CCFB25462846BDE8F0810E
:1030400000F01BF88442074602D8B4EB500F12D8A8
:1030500021464046FFF724FC05460028EDD0BC423F
:103060002246314628BF3A46FFF7CAFF314640465E
:10307000FFF7AEFBE1E73546DFE751F8043C181FE8
:10308000002BBCBF0B58C01870470000F8B500BF3C
:10309000F8BC08BC9E467047F8B500BFF8BC08BC39
:0430A0009E46704791
:1030A400202020202020202020202020202020003C
:1030B40025303864004D3A20002564002A00533A34
:1030C400200074686965752D6235350031312F3201
:1030D400303233000000000000000000010203044D
:1030E40006070809000000000102030402030405A6
:1030F400060708090A0B0C0D0E0F10100102232DF0
:10310400302B2000686C4C006566674546470030EC
:103114003132333435363738394142434445460039
:103124003031323334353637383961626364656639
:043134000000000097
:0831380048D0FF7F01000000F8
:04314000350100084D
:04314400110100086D
:10314800B562063120000001000032000000404254
:103158000F0080841E000000008000000080000036
:10316800000067000000A41EB562063101000038A7
:10317800E501000001000000010000000024F40047
:10318800010000001000000000000000980200206C
:103198000003002068030020000000000000000079
:1031A8000000000000000000000000000000000017
:1031B8000000000000000000000000000000000007
:1031C80000000000000000000000000000000000F7
:0831D800000000004800002087
:04000005080013F9E3
:00000001FF
